:03000000020800F3
:0C080000787FE4F6D8FD75811A020847E5
:080B8B00020800000215000041
:030023000209D8F7
:0B09D800C0E0C0D075D000C000C00718
:1009E30030982BC298AF99C3E5099407E5089400A2
:1009F300400280140509E5097002050814240AF869
:0E0A0300A607E50A64A56006750800750900DF
:090A1100D007D000D0D0D0E032B3
:03000B00020B5F86
:100B5F00C0E0758C4B758AFD0516E51670020515FC
:030B6F00D0E032A1
:100A5A00120B42120B7FC3E516940AE51594004067
:100A6A0008120A96E4F515F5167F0A7E00120B2283
:100A7A00E509450860E0120A1AE4F508F509FE7F5F
:0C0A8A0007FDFB7A00790A1208D280CA2E
:0C0B7F00E4F59075A0FF7580FF020B727A
:100B4200758921759850758780758DFDD28ED2ACCE
:0D0B5200D2AF758C4B758AFDD28CD2A922D2
:080B94008F993099FDC29922EE
:060AFE008B178A1889190C
:100B0400E4FDFCAB17AA18A9198D828C831208A5E1
:0D0B1400FF600A120B940DBD00010C80E67D
:010B210022B1
:0D0B7200C2B2C2B3C2B4C2B5C2B6C2B7228D
:100B2200E4FDFCC3ED9FEC9E5015E4FBFA0BBB0009
:0F0B3200010ABA04F8BBFBF50DBD00010C80E40D
:010B41002291
:100ACC007F0320B205430704800020B305430708C9
:100ADC00800020B405430710800020B50543072093
:100AEC00800020B605430740800020B704430780F0
:010AFC0022D7
:010AFD0022D6
:100A96007510A575115AE580F4F512E5A0F4F51365
:100AA600251214F5147515AAAF10120B94AF111276
:100AB6000B94AF12120B94AF13120B94AF14120BCC
:060AC60094AF15020B9431
:1008FE0012088CFF5401FE7010EF5402700B120898
:10090E008C540464047002804FEE6401701212085D
:10091E008CFF5402700AEF54047005D2B2C2B32297
:10092E0012088CFF54017013EF54026402700C1203
:10093E00088C54047005C2B2D2B32212088CFF5434
:10094E000164017013EF54026402700C12088C548F
:0D095E00047005D2B2D2B322C2B2C2B322DD
:10096B0012088CFF5408FE7010EF5410700B120815
:10097B008C542064207002804FEE640870121208B1
:10098B008CFF5410700AEF54207005D2B4C2B522FC
:10099B0012088CFF54087013EF54106410700C1273
:1009AB00088C54207005C2B4D2B52212088CFF54A7
:1009BB000864087013EF54106410700C12088C54F8
:0D09CB00207005D2B4D2B522C2B4C2B5224C
:0C0A1A00E50A64A57039E50B645A7033DE
:100A2600E50C250D14F51A650E7028E50F64AA70FD
:100A360022850C90FB7A00790C1208FE12096BC312
:100A4600E5109403748094804005D2B6D2B722C2D2
:030A5600B6C2B76E
:010A5900227A
:030B9C00C2AC22C6
:030B9F00D2AC22B3
:10080C00020A5AE493A3F8E493A34003F68001F29E
:10081C0008DFF48029E493A3F85407240CC8C333ED
:10082C00C4540F4420C8834004F456800146F6DFBC
:10083C00E4800B0102040810204080900B8BE47EB6
:10084C00019360BCA3FF543F30E509541FFEE493B1
:10085C00A360010ECF54C025E060A840B8E493A378
:10086C00FAE493A3F8E493A3C8C582C8CAC583CAA3
:10087C00F0A3C8C582C8CAC583CADFE9DEE780BE5B
:010B93000061
:10088C00BB010689828A83E0225002E722BBFE026A
:09089C00E32289828A83E493229D
:1008A500BB010CE58229F582E5833AF583E0225008
:1008B50006E92582F8E622BBFE06E92582F8E22252
:0D08C500E58229F582E5833AF583E493226C
:1008D200EF4E6012EF60010EEDBB010B89828A833D
:1008E200F0A3DFFCDEFA2289F05007F709DFFCA94A
:0C08F200F022BBFEFCF309DFFCA9F022A1
:00000001FF
