:0300000002095E94
:0C095E00787FE4F6D8FD758119020800CE
:1008F20057524F4E4720434845434B53554D206F67
:100902007220454E445F425954450057524F4E475C
:0C0912002053544152545F425954450098
:10080000120942E4F590F5A07580FF120951120912
:10081000728F08EF64A570F6F50E750F011209725C
:100820007408250FF8A607050FE50F7002050EC323
:0E0830009406E50E940040E5E509645A703127
:10083E00E50A250B14F516650C7013E50D64AA7008
:10084E000D850A90850BA0FE7F06FDFB80247BFFA5
:0F085E007A0879F212091E7E007F067D007B006A
:10086D0080117BFF7A09790D12091E7E007F067DAE
:10087D00007B007A0079081208C67E007F067D0095
:0C088D007B007A0079081208C602080EF1
:0F094200758920759850758780758DFDD28E222E
:08096A008F993099FDC299221A
:06091E008B178A188919ED
:10092400E4FDFCAB17AA18A9198D828C83120899CF
:0D093400FF600A12096A0DBD00010C80E68B
:010941002293
:070972003098FDAF99C29817
:01097900225B
:0D095100D2B2D2B3D2B4D2B5D2B6D2B72250
:10089900BB010CE58229F582E5833AF583E0225014
:1008A90006E92582F8E622BBFE06E92582F8E2225E
:0D08B900E58229F582E5833AF583E4932278
:1008C600EF4E6012EF60010EEDBB010B89828A8349
:1008D600F0A3DFFCDEFA2289F05007F709DFFCA956
:0C08E600F022BBFEFCF309DFFCA9F022AD
:00000001FF
