:03000000020800F3
:0C080000787FE4F6D8FD758119020847E6
:080B800002080000021500004C
:030023000209D8F7
:0B09D800C0E0C0D075D000C000C00718
:1009E30030982BC298AF99C3E5099407E5089400A2
:1009F300400280140509E5097002050814240AF869
:0E0A0300A607E50A64A56006750800750900DF
:090A1100D007D000D0D0D0E032B3
:03000B00020B5491
:100B5400C0E0758C4B758AFD0516E5167002051507
:030B6400D0E032AC
:100A1A00120B37120B74C3E516940AE515940040BD
:100A2A0008120A56E4F515F5167F0A7E00120B170E
:100A3A00E509450860E0120A8CE4F508F509FE7F2D
:0C0A4A0007FDFB7A00790A1208D280CA6E
:0C0B7400E4F59075A0FF7580FF020B6790
:100B3700758921759850758780758DFDD28ED2ACD9
:0D0B4700D2AF758C4B758AFDD28CD2A922DD
:080B89008F993099FDC29922F9
:060AF3008B178A18891917
:100AF900E4FDFCAB17AA18A9198D828C831208A5ED
:0D0B0900FF600A120B890DBD00010C80E693
:010B160022BC
:0D0B6700C2B2C2B3C2B4C2B5C2B6C2B72298
:100B1700E4FDFCC3ED9FEC9E5015E4FBFA0BBB0014
:0F0B2700010ABA04F8BBFBF50DBD00010C80E418
:010B3600229C
:100AC1007F0320B205430704800020B305430708D4
:100AD100800020B405430710800020B5054307209E
:100AE100800020B605430740800020B704430780FB
:010AF10022E2
:010AF20022E1
:100A56007510A575115AE580F4F512E5A0F4F513A5
:100A6600251214F5147515AAAF10120B89AF1112C1
:100A76000B89AF12120B89AF13120B89AF14120B2D
:060A860089AF15020B8987
:1008FE0012088CFF5401FE7010EF5402700B120898
:10090E008C540464047002804FEE6401701212085D
:10091E008CFF5402700AEF54047005D2B2C2B32297
:10092E0012088CFF54017013EF54026402700C1203
:10093E00088C54047005C2B2D2B32212088CFF5434
:10094E000164017013EF54026402700C12088C548F
:0D095E00047005D2B2D2B322C2B2C2B322DD
:10096B0012088CFF5408FE7010EF5410700B120815
:10097B008C542064207002804FEE640870121208B1
:10098B008CFF5410700AEF54207005D2B4C2B522FC
:10099B0012088CFF54087013EF54106410700C1273
:1009AB00088C54207005C2B4D2B52212088CFF54A7
:1009BB000864087013EF54106410700C12088C54F8
:0D09CB00207005D2B4D2B522C2B4C2B5224C
:100A8C00E50A64A5702EE50B645A7028E50F64AA7C
:100A9C007022850C90FB7A00790C1208FE12096BFF
:100AAC00C3E5109403748094804005D2B6D2B7226B
:050ABC00C2B6C2B72222
:030B9100C2AC22D1
:030B9400D2AC22BE
:10080C00020A1AE493A3F8E493A34003F68001F2DE
:10081C0008DFF48029E493A3F85407240CC8C333ED
:10082C00C4540F4420C8834004F456800146F6DFBC
:10083C00E4800B0102040810204080900B80E47EC1
:10084C00019360BCA3FF543F30E509541FFEE493B1
:10085C00A360010ECF54C025E060A840B8E493A378
:10086C00FAE493A3F8E493A3C8C582C8CAC583CAA3
:10087C00F0A3C8C582C8CAC583CADFE9DEE780BE5B
:010B8800006C
:10088C00BB010689828A83E0225002E722BBFE026A
:09089C00E32289828A83E493229D
:1008A500BB010CE58229F582E5833AF583E0225008
:1008B50006E92582F8E622BBFE06E92582F8E22252
:0D08C500E58229F582E5833AF583E493226C
:1008D200EF4E6012EF60010EEDBB010B89828A833D
:1008E200F0A3DFFCDEFA2289F05007F709DFFCA94A
:0C08F200F022BBFEFCF309DFFCA9F022A1
:00000001FF
