:0300000002089360
:0C089300787FE4F6D8FD7581120208DAC7
:1009780057524F4E4720434845434B53554D206FE0
:100988007220454E445F425954450057524F4E47D6
:0C0998002053544152545F425954450012
:0409E700020D0000FD
:100800001209C8E4F590F5A01209DF8F08EF64A57E
:1008100070F6F50D750E011209DF7408250EF8A6A5
:1008200007050EE50E7002050DC39406E50D940054
:0808300040E5E509645A70314E
:10083800E50A250B14F50F650C7013E50D64AA7015
:100848000D850A90850BA0FE7F06FDFB80247BFFAB
:0F0858007A0979781209A47E007F067D007B0063
:1008670080117BFF7A0979931209A47E007F067DA8
:10087700007B007A00790812094C7E007F067D0014
:0C0887007B007A00790812094C02080876
:0F09C800758920759850758780758DFDD28E22A8
:0809D7008F993099FDC29922AD
:0609A4008B108A1189127C
:1009AA00E4FDFCAB10AA11A9128D828C8312091FD7
:0D09BA00FF600A1209D70DBD00010C80E698
:0109C700220D
:0709DF003098FDAF99C298AA
:0109E60022EE
:10089F00020800E493A3F8E493A34003F68001F267
:1008AF0008DFF48029E493A3F85407240CC8C3335A
:1008BF00C4540F4420C8834004F456800146F6DF29
:1008CF00E4800B01020408102040809009E7E47EC9
:1008DF00019360BCA3FF543F30E509541FFEE4931E
:1008EF00A360010ECF54C025E060A840B8E493A3E5
:1008FF00FAE493A3F8E493A3C8C582C8CAC583CA10
:10090F00F0A3C8C582C8CAC583CADFE9DEE780BEC7
:0109EB00000B
:10091F00BB010CE58229F582E5833AF583E022508D
:10092F0006E92582F8E622BBFE06E92582F8E222D7
:0D093F00E58229F582E5833AF583E49322F1
:10094C00EF4E6012EF60010EEDBB010B89828A83C2
:10095C00F0A3DFFCDEFA2289F05007F709DFFCA9CF
:0C096C00F022BBFEFCF309DFFCA9F02226
:00000001FF
