:030000000208B73C
:0C08B700787FE4F6D8FD75811002082D52
:10082D0012089B7580FF1208AA7508A575095A85CF
:10083D00800A85B00BE50A14250BF50C750DAA7B06
:0A084D00007A00790812085780DFD6
:0F089B00758920759850758780758DFDD28E22D6
:0808C3008F993099FDC29922C2
:060857008B0E8A0F8910D0
:10085D00E4FDFCAB0EAA0FA9108D828C831208004B
:0D086D00FF600A1208C30DBD00010C80E6FB
:01087A00225B
:0708CB003098FDAF99C298BF
:0108D2002203
:0D08AA00D2B2D2B3D2B4D2B5D2B6D2B722F8
:10087B00E4FDFCC3ED9FEC9E5015E4FBFA0BBB00B3
:0F088B00010ABA04F8BBFBF50DBD00010C80E4B7
:01089A00223B
:10080000BB010CE58229F582E5833AF583E02250AD
:1008100006E92582F8E622BBFE06E92582F8E222F7
:0D082000E58229F582E5833AF583E4932211
:00000001FF
