:030000000208BE35
:0C08BE00787FE4F6D8FD75811002080078
:100800001208A27580FF1208B17508A575095A85EE
:10081000800A85B00BE50A14250BF50C750DAA7B33
:10082000007A00790812085E7FFA7E001208828042
:01083000D8EF
:0F08A200758920759850758780758DFDD28E22CF
:0808CA008F993099FDC29922BB
:06085E008B0E8A0F8910C9
:10086400E4FDFCAB0EAA0FA9108D828C8312083113
:0D087400FF600A1208CA0DBD00010C80E6ED
:010881002254
:0708D2003098FDAF99C298B8
:0108D90022FC
:0D08B100D2B2D2B3D2B4D2B5D2B6D2B722F1
:10088200E4FDFCC3ED9FEC9E5015E4FBFA0BBB00AC
:0F089200010ABA04F8BBFBF50DBD00010C80E4B0
:0108A1002234
:10083100BB010CE58229F582E5833AF583E022507C
:1008410006E92582F8E622BBFE06E92582F8E222C6
:0D085100E58229F582E5833AF583E49322E0
:00000001FF
