:030000000208EA09
:0C08EA00787FE4F6D8FD75811E0209310C
:1009CF00574F524B494E470057524F4E47204348BF
:1009DF0045434B53554D206F7220454E445F42594E
:1009EF0054450057524F4E472053544152545F4283
:1009FF00595445004944454E544954592057524F74
:030A0F004E47004F
:0C0AFA00020D000002110001020F0000BC
:03002300020A12BC
:0B0A1200C0E0C0D075D000C000C007DD
:100A1D0030982BC298AF99C3E50E9406E50D94005E
:100A2D0040028014050EE50E7002050D142408F821
:0E0A3D00A607E50864A56006750D00750E009D
:090A4B00D007D000D0D0D0E03279
:03000B00020AE7FF
:100AE700C0E0758C4B758AFD0510E5107002050F87
:030AF700D0E0321A
:10080000120ACAE4F59075A0FF7580FF120B07C3AA
:10081000E510940AE50F940040397515A575165A30
:1008200085801785A018E517251814F519751AAADB
:10083000AF15120B14AF16120B14AF17120B14AF27
:1008400018120B14AF19120B14AF1A120B14E4F593
:100850000FF5107F0A7E00120AAAE50E450D60AF63
:0C086000E50864A5704EE509645A703B81
:10086C00E50A250B14F51B650C7014E50D64AA70D4
:10087C000E850A90850BB07BFF7A0979CF8039AF52
:10088C001B120B14AF0C120B14AF0D120B14E4F55E
:09089C000DF50E7BFF7A0979D7F6
:1008A500801DE4F50DF50E7BFF7A0979F28010AF16
:1008B50008120B14E4F50DF50E7BFF7A0A79031285
:1008C5000A867E007F067D007B007A007908120982
:1008D500A3E4F50DF50EFE7F06FDFB7A00790812FF
:0508E50009A302080F49
:100ACA00758921759850758780758DFDD28ED2AC47
:0D0ADA00D2AF758C4B758AFDD28CD2A9224B
:080B14008F993099FDC299226E
:060A86008B1C8A1D891E75
:100A8C00E4FDFCAB1CAA1DA91E8D828C8312097679
:0D0A9C00FF600A120B140DBD00010C80E676
:010AA900222A
:0D0B0700C2B2C2B3C2B4C2B5C2B6C2B722F8
:100AAA00E4FDFCC3ED9FEC9E5015E4FBFA0BBB0082
:0F0ABA00010ABA04F8BBFBF50DBD00010C80E486
:010AC900220A
:100A54007F0320B205430704800020B30543070841
:100A6400800020B405430710800020B5054307200B
:100A7400800020B605430740800020B70443078068
:010A8400224F
:010A8500224E
:1008F600020800E493A3F8E493A34003F68001F210
:1009060008DFF48029E493A3F85407240CC8C33302
:10091600C4540F4420C8834004F456800146F6DFD1
:10092600E4800B0102040810204080900AFAE47E5D
:10093600019360BCA3FF543F30E509541FFEE493C6
:10094600A360010ECF54C025E060A840B8E493A38D
:10095600FAE493A3F8E493A3C8C582C8CAC583CAB8
:10096600F0A3C8C582C8CAC583CADFE9DEE780BE70
:010B060000EE
:10097600BB010CE58229F582E5833AF583E0225036
:1009860006E92582F8E622BBFE06E92582F8E22280
:0D099600E58229F582E5833AF583E493229A
:1009A300EF4E6012EF60010EEDBB010B89828A836B
:1009B300F0A3DFFCDEFA2289F05007F709DFFCA978
:0C09C300F022BBFEFCF309DFFCA9F022CF
:00000001FF
