:030000000208E90A
:0C08E900787FE4F6D8FD75811E0209300E
:1009CE00574F524B494E470057524F4E47204348C0
:1009DE0045434B53554D206F7220454E445F42594F
:1009EE0054450057524F4E472053544152545F4284
:1009FE00595445004944454E544954592057524F75
:030A0E004E470050
:0C0AC700020D000002110001020F0000EF
:03002300020A11BD
:0B0A1100C0E0C0D075D000C000C007DE
:100A1C0030982BC298AF99C3E50E9406E50D94005F
:100A2C0040028014050EE50E7002050D142408F822
:0E0A3C00A607E50864A56006750D00750E009E
:090A4A00D007D000D0D0D0E0327A
:03000B00020AB432
:100AB400C0E0758C4B758AFD0510E5107002050FBA
:030AC400D0E0324D
:10080000120A97E4F590F5A07580FF120AD4C3E5AB
:1008100010940AE50F940040397515A575165A8590
:10082000801785B018E517251814F519751AAAAFA1
:1008300015120AE1AF16120AE1AF17120AE1AF185A
:10084000120AE1AF19120AE1AF1A120AE1E4F50F38
:10085000F5107F0A7E00120A77E50E450D60AFE5C0
:0B0860000864A5704EE509645A703B67
:10086B00E50A250B14F51B650C7014E50D64AA70D5
:10087B000E850A90850BA07BFF7A0979CE8039AF64
:10088B001B120AE1AF0C120AE1AF0D120AE1E4F5FB
:09089B000DF50E7BFF7A0979D6F8
:1008A400801DE4F50DF50E7BFF7A0979F18010AF18
:1008B40008120AE1E4F50DF50E7BFF7A0A790212BB
:1008C4000A537E007F067D007B007A0079081209B6
:1008D400A2E4F50DF50EFE7F06FDFB7A0079081201
:0508E40009A202080E4C
:100A9700758921759850758780758DFDD28ED2AC7A
:0D0AA700D2AF758C4B758AFDD28CD2A9227E
:080AE1008F993099FDC29922A2
:060A53008B1C8A1D891EA8
:100A5900E4FDFCAB1CAA1DA91E8D828C83120975AD
:0D0A6900FF600A120AE10DBD00010C80E6DD
:010A7600225D
:0D0AD400D2B2D2B3D2B4D2B5D2B6D2B722CC
:100A7700E4FDFCC3ED9FEC9E5015E4FBFA0BBB00B5
:0F0A8700010ABA04F8BBFBF50DBD00010C80E4B9
:010A9600223D
:1008F500020800E493A3F8E493A34003F68001F211
:1009050008DFF48029E493A3F85407240CC8C33303
:10091500C4540F4420C8834004F456800146F6DFD2
:10092500E4800B0102040810204080900AC7E47E91
:10093500019360BCA3FF543F30E509541FFEE493C7
:10094500A360010ECF54C025E060A840B8E493A38E
:10095500FAE493A3F8E493A3C8C582C8CAC583CAB9
:10096500F0A3C8C582C8CAC583CADFE9DEE780BE71
:010AD3000022
:10097500BB010CE58229F582E5833AF583E0225037
:1009850006E92582F8E622BBFE06E92582F8E22281
:0D099500E58229F582E5833AF583E493229B
:1009A200EF4E6012EF60010EEDBB010B89828A836C
:1009B200F0A3DFFCDEFA2289F05007F709DFFCA979
:0C09C200F022BBFEFCF309DFFCA9F022D0
:00000001FF
