:03000000020800F3
:0C080000787FE4F6D8FD758119020847E6
:080B7600020800000214000057
:030023000209D8F7
:0B09D800C0E0C0D075D000C000C00718
:1009E30030982BC298AF99C3E5099406E5089400A3
:1009F300400280140509E5097002050814240AF869
:0E0A0300A607E50A64A56006750800750900DF
:090A1100D007D000D0D0D0E032B3
:03000B00020B4A9B
:100B4A00C0E0758C4B758AFD0515E5157002051414
:030B5A00D0E032B6
:100A1A00120B2D120B6AC3E515940AE514940040D3
:100A2A0008120A56E4F514F5157F0A7E00120B0D1A
:100A3A00E509450860E0120ABEE4F508F509FE7FFB
:0C0A4A0007FDFB7A00790A1208D280CA6E
:0C0B6A00E4F59075A0FF7580FF020B5DA4
:100B2D00758921759850758780758DFDD28ED2ACE3
:0D0B3D00D2AF758C4B758AFDD28CD2A922E7
:080B7F008F993099FDC2992203
:060AE9008B168A17891824
:100AEF00E4FDFCAB16AA17A9188D828C831208A5FA
:0D0AFF00FF600A120B7F0DBD00010C80E6A8
:010B0C0022C6
:0D0B5D00C2B2C2B3C2B4C2B5C2B6C2B722A2
:100B0D00E4FDFCC3ED9FEC9E5015E4FBFA0BBB001E
:0F0B1D00010ABA04F8BBFBF50DBD00010C80E422
:010B2C0022A6
:100A8C007F0320B205430704800020B30543070809
:100A9C00800020B405430710800020B505430720D3
:100AAC00800020B605430740800020B70443078030
:010ABC002217
:010ABD002216
:100A5600750FA575105AE580F4F511E5A0F4F512A9
:100A6600251114F5137514AAAF0F120B7FAF1012D0
:100A76000B7FAF11120B7FAF12120B7FAF13120B4E
:060A86007FAF14020B7F9C
:1008FE0012088CFF5401FE7010EF5402700B120898
:10090E008C540464047002804FEE6401701212085D
:10091E008CFF5402700AEF54047005D2B2C2B32297
:10092E0012088CFF54017013EF54026402700C1203
:10093E00088C54047005C2B2D2B32212088CFF5434
:10094E000164017013EF54026402700C12088C548F
:0D095E00047005D2B2D2B322C2B2C2B322DD
:10096B0012088CFF5408FE7010EF5410700B120815
:10097B008C542064207002804FEE640870121208B1
:10098B008CFF5410700AEF54207005D2B4C2B522FC
:10099B0012088CFF54087013EF54106410700C1273
:1009AB00088C54207005C2B4D2B52212088CFF54A7
:1009BB000864087013EF54106410700C12088C54F8
:0D09CB00207005D2B4D2B522C2B4C2B5224C
:0C0ABE00E50A64A57024E50B645A701E64
:100ACA00E50C250D14F519B50E14E50F64AA700E80
:0E0ADA00850C90FB7A00790C1208FE12096B55
:010AE80022EB
:030B8700C2AC22DB
:030B8A00D2AC22C8
:10080C00020A1AE493A3F8E493A34003F68001F2DE
:10081C0008DFF48029E493A3F85407240CC8C333ED
:10082C00C4540F4420C8834004F456800146F6DFBC
:10083C00E4800B0102040810204080900B76E47ECB
:10084C00019360BCA3FF543F30E509541FFEE493B1
:10085C00A360010ECF54C025E060A840B8E493A378
:10086C00FAE493A3F8E493A3C8C582C8CAC583CAA3
:10087C00F0A3C8C582C8CAC583CADFE9DEE780BE5B
:010B7E000076
:10088C00BB010689828A83E0225002E722BBFE026A
:09089C00E32289828A83E493229D
:1008A500BB010CE58229F582E5833AF583E0225008
:1008B50006E92582F8E622BBFE06E92582F8E22252
:0D08C500E58229F582E5833AF583E493226C
:1008D200EF4E6012EF60010EEDBB010B89828A833D
:1008E200F0A3DFFCDEFA2289F05007F709DFFCA94A
:0C08F200F022BBFEFCF309DFFCA9F022A1
:00000001FF
