:030000000208C42F
:0C08C400787FE4F6D8FD75811C02090B5A
:1009A900574F524B494E470057524F4E47204348E5
:1009B90045434B53554D206F7220454E445F425974
:1009C90054450057524F4E472053544152545F42A9
:1009D900595445004944454E544954592057524F9A
:0309E9004E470076
:080A9200020D0000020F00013B
:030023000209ECE3
:0B09EC00C0E0C0D075D000C000C00704
:1009F70030982BC298AF99C3E50E9406E50D940085
:100A070040028014050EE50E7002050D142408F847
:0E0A1700A607E50864A56006750D00750E00C3
:090A2500D007D000D0D0D0E0329F
:10080000120A72E4F590F5A07580FF120A8575133F
:10081000A575145A85801585B016E515251614F5AD
:10082000177518AA7B007A007913120A2E7F0A7EA8
:1008300000120A52E50E450D60D4E50864A5704E1D
:06084000E509645A703B5B
:10084600E50A250B14F519650C7014E50D64AA70FC
:100856000E850A90850BA07BFF7A0979A98039AFAE
:1008660019120A9BAF0C120A9BAF0D120A9BE4F5F4
:090876000DF50E7BFF7A0979B142
:10087F00801DE4F50DF50E7BFF7A0979CC8010AF62
:10088F0008120A9BE4F50DF50E7BFF7A0979DD124C
:10089F000A2E7E007F067D007B007A007908120900
:1008AF007DE4F50DF50EFE7F06FDFB7A007908124B
:0508BF00097D02080E96
:100A7200758920759850758780758DFDD28ED2ACA0
:030A8200D2AF22CE
:080A9B008F993099FDC29922E8
:060A2E008B1A8A1B891CD3
:100A3400E4FDFCAB1AAA1BA91C8D828C83120950FD
:0D0A4400FF600A120A9B0DBD00010C80E648
:010A51002282
:0D0A8500D2B2D2B3D2B4D2B5D2B6D2B7221B
:100A5200E4FDFCC3ED9FEC9E5015E4FBFA0BBB00DA
:0F0A6200010ABA04F8BBFBF50DBD00010C80E4DE
:010A71002262
:1008D000020800E493A3F8E493A34003F68001F236
:1008E00008DFF48029E493A3F85407240CC8C33329
:1008F000C4540F4420C8834004F456800146F6DFF8
:10090000E4800B0102040810204080900A92E47EEB
:10091000019360BCA3FF543F30E509541FFEE493EC
:10092000A360010ECF54C025E060A840B8E493A3B3
:10093000FAE493A3F8E493A3C8C582C8CAC583CADE
:10094000F0A3C8C582C8CAC583CADFE9DEE780BE96
:010A9A00005B
:10095000BB010CE58229F582E5833AF583E022505C
:1009600006E92582F8E622BBFE06E92582F8E222A6
:0D097000E58229F582E5833AF583E49322C0
:10097D00EF4E6012EF60010EEDBB010B89828A8391
:10098D00F0A3DFFCDEFA2289F05007F709DFFCA99E
:0C099D00F022BBFEFCF309DFFCA9F022F5
:00000001FF
