:03000000020800F3
:0C080000787FE4F6D8FD758119020847E6
:080A7900020800000214000055
:030023000208E5EB
:0B08E500C0E0C0D075D000C000C0070C
:1008F00030982BC298AF99C3E5099406E508940097
:10090000400280140509E5097002050814240AF85C
:0E091000A607E50A64A56006750800750900D3
:09091E00D007D000D0D0D0E032A7
:03000B00020A4D99
:100A4D00C0E0758C4B758AFD0515E5157002051412
:030A5D00D0E032B4
:10092700120A30120A6DC3E515940AE514940040C3
:1009370008120963E4F514F5157F0A7E00120A1000
:10094700E509450860E01209EDE4F508F509FE7FC1
:0C09570006FDFB7A00790A1208B980CA7C
:100A3000758921759850758780758DFDD28ED2ACE1
:0D0A4000D2AF758C4B758AFDD28CD2A922E5
:080A82008F993099FDC2992201
:0609C9008B168A17891845
:1009CF00E4FDFCAB16AA17A9188D828C8312088C34
:0D09DF00FF600A120A820DBD00010C80E6C7
:0109EC0022E8
:0D0A6000C2B2C2B3C2B4C2B5C2B6C2B722A0
:100A1000E4FDFCC3ED9FEC9E5015E4FBFA0BBB001C
:0F0A2000010ABA04F8BBFBF50DBD00010C80E420
:010A2F0022A4
:100997007F0320B205430704800020B305430708FF
:1009A700800020B405430710800020B505430720C9
:1009B700800020B605430740800020B70443078026
:0109C700220D
:0109C800220C
:10096300750FA575105A85801185A012E511251202
:1009730014F5137514AAAF0F120A82AF10120A826C
:10098300AF11120A82AF12120A82AF13120A82AF98
:0409930014020A82BE
:0C09ED00E50A64A5701CE50B645A701646
:1009F900E50C250D14F519B50E0CE50F64AA700662
:060A0900850C90850DB084
:010A0F0022C4
:0C0A6D00E4F59075A0FF7580FF020A60A0
:10080C00020927E493A3F8E493A34003F68001F2D2
:10081C0008DFF48029E493A3F85407240CC8C333ED
:10082C00C4540F4420C8834004F456800146F6DFBC
:10083C00E4800B0102040810204080900A79E47EC9
:10084C00019360BCA3FF543F30E509541FFEE493B1
:10085C00A360010ECF54C025E060A840B8E493A378
:10086C00FAE493A3F8E493A3C8C582C8CAC583CAA3
:10087C00F0A3C8C582C8CAC583CADFE9DEE780BE5B
:010A81000074
:10088C00BB010CE58229F582E5833AF583E0225021
:10089C0006E92582F8E622BBFE06E92582F8E2226B
:0D08AC00E58229F582E5833AF583E4932285
:1008B900EF4E6012EF60010EEDBB010B89828A8356
:1008C900F0A3DFFCDEFA2289F05007F709DFFCA963
:0C08D900F022BBFEFCF309DFFCA9F022BA
:00000001FF
