:03000000020800F3
:0C080000787FE4F6D8FD75811A020847E5
:080B3E0002080000021500008E
:030023000209B01F
:0B09B000C0E0C0D075D000C000C00740
:1009BB0030982BC298AF99C3E5099407E5089400CA
:1009CB00400280140509E5097002050814240AF891
:0E09DB00A607E50A64A5600675080075090008
:0909E900D007D000D0D0D0E032DC
:03000B00020B20C5
:100B2000C0E0758C4B758AFD0516E516700205153B
:030B3000D0E032E0
:1009F200120B03120B47C3E516940AE51594004047
:100A020008120A2EE4F515F5167F0A7E00120AE393
:100A1200E509450860E0120A94E4F508F509FE7F4D
:0C0A220007FDFB7A00790A12098480CAE3
:100B0300758921759850758780758DFDD28ED2AC0D
:0D0B1300D2AF758C4B758AFDD28CD2A92211
:080B50008F993099FDC2992232
:060ABF008B178A1889194B
:100AC500E4FDFCAB17AA18A9198D828C831209576E
:0D0AD500FF600A120B500DBD00010C80E601
:010AE20022F1
:0B0B3300C291C290C2B2C2B3C2B42291
:100AE300E4FDFCC3ED9FEC9E5015E4FBFA0BBB0049
:0F0AF300010ABA04F8BBFBF50DBD00010C80E44D
:010B020022D0
:100A62007F0320B205430704800020B30543070833
:100A7200800020B405430710800020B505430720FD
:100A8200800020B605430740800020B7044307805A
:010A92002241
:010A93002240
:100A2E007510A575115A85801285A013E512251330
:100A3E0014F5147515AAAF10120B50AF11120B50FE
:100A4E00AF12120B50AF13120B50AF14120B50AF5C
:040A5E0015020B5022
:1008F900EF5401FD7C00700EEF54027009EF5404AF
:10090900640470028043ED64014C700FEF5402706F
:100919000AEF54047005C291D29022EF540170116C
:10092900EF54026402700AEF54047005D291C29028
:1009390022EF540164017011EF54026402700AEF4E
:0E09490054047005C291C29022D291D2902225
:10088C00EF5408F9FB7A00700EEF54107009EF5416
:10089C0020642070028042EB64084A7010EF541000
:1008AC00700BEF54207006C2B2D2B38030E97012D4
:1008BC00EF54106410700BEF54207006D2B2C2B318
:1008CC00801BE964087012EF54106410700BEF5425
:1008DC00207006C2B2C2B38004D2B2D2B3C3ED94BC
:0D08EC000374809480400292B4D392B42231
:0C0A9400E50A64A57024E50B645A701E8E
:100AA000E50C250D250E14F51AB50F12E51064AAF4
:0E0AB000700CAF0C1208F9AD0EAF0C12088CD2
:010ABE002215
:090B470075A0FF7580FF020B335D
:10080C000209F2E493A3F8E493A34003F68001F207
:10081C0008DFF48029E493A3F85407240CC8C333ED
:10082C00C4540F4420C8834004F456800146F6DFBC
:10083C00E4800B0102040810204080900B3EE47E03
:10084C00019360BCA3FF543F30E509541FFEE493B1
:10085C00A360010ECF54C025E060A840B8E493A378
:10086C00FAE493A3F8E493A3C8C582C8CAC583CAA3
:10087C00F0A3C8C582C8CAC583CADFE9DEE780BE5B
:010B460000AE
:10095700BB010CE58229F582E5833AF583E0225055
:1009670006E92582F8E622BBFE06E92582F8E2229F
:0D097700E58229F582E5833AF583E49322B9
:10098400EF4E6012EF60010EEDBB010B89828A838A
:10099400F0A3DFFCDEFA2289F05007F709DFFCA997
:0C09A400F022BBFEFCF309DFFCA9F022EE
:00000001FF
